:100000000C942A000C9447000C9447000C94470071
:100010000C9447000C9447000C9447000C94470044
:100020000C9447000C9447000C9447000C94470034
:100030000C9447000C9447000C9447000C94470024
:100040000C9447000C9447000C9447000C94470014
:100050000C94470011241FBECFE5D4E0DEBFCDBF16
:1000600010E0A0E6B0E0E0E4F3E002C005900D92FD
:10007000A036B107D9F710E0A0E6B0E001C01D92AC
:10008000A236B107E1F70E941B010C949E010C946B
:100090000000282F207F25BBA898A898AA9A20E4C2
:1000A0003FE1F9013197F1F7AA9890E044E0880F19
:1000B000991F4A95E1F785BBAA9AC9010197F1F703
:1000C000AA98089582E090E00E94490088E290E0BA
:1000D0000E9449008CE090E00E94490086E090E098
:1000E0000E9449000895282F207F25BBA89AAA9A2C
:1000F00020E43FE1F9013197F1F7AA9890E054E04C
:10010000880F991F5A95E1F785BBA89AAA9AC90149
:100110000197F1F7AA980895EF92FF921F93CF935A
:10012000DF93EC0110E060EAE62E6FE0F62E06C0E9
:100130000E9473001F5FC7010197F1F7FE01E10FF5
:10014000F11D80818823A1F7DF91CF911F91FF904E
:10015000EF900895CF93DF93EC0184E00E94490073
:10016000209791F480E30E9473000EC0CE016AE0F4
:1001700070E00E948A01805D0E947300CE016AE0F7
:1001800070E00E948A01EB01209781F786E00E94CF
:100190004900DF91CF9108950F931F938C0184E064
:1001A0000E944900C8016AE070E00E948A01805DF7
:1001B0000E947300C8016AE070E00E948A01862FE5
:1001C000805D0E94730086E00E9449001F910F919C
:1001D0000895EF92FF921F93CF93DF93EC0110E00D
:1001E00070EAE72E7FE0F72E06C00E9473001F5FC3
:1001F000C7010197F1F7FE01E10FF11D808188230E
:10020000A1F7DF91CF911F91FF90EF9008959C018E
:10021000E199FECF3FBB2EBBE09A8DB308959C01C0
:10022000E199FECF3FBB2EBB6DBB0FB6F894E29AAF
:10023000E19A0FBE08950F931F938FEF84BB0E9426
:1002400062004FE051E06FE976E881E090E00E94C3
:10025000750167E071E081E090E00E945F018C0130
:100260008FE80E944900C8010E94AA0080E090E047
:100270001F910F910895EF92FF921F93CF93DF93F9
:10028000EC01DC010D900020E9F71A2F181B125029
:10029000E0EAEE2EEFE0FE2E0AC0FE01E10FF11DB6
:1002A00080810E9473001150C7010197F1F711235B
:1002B000A1F7DF91CF911F91FF90EF900895DF920A
:1002C000EF92FF920F931F937B018C01FB01099525
:1002D000D82EC8010196F7010995982F8D2D1F91F1
:1002E0000F91FF90EF90DF900895DF92EF92FF92D1
:1002F0000F931F93D72E7A018C01FA0109956D2D6A
:10030000C8010196F70109951F910F91FF90EF9099
:10031000DF900895AA1BBB1B51E107C0AA1FBB1F9A
:10032000A617B70710F0A61BB70B881F991F5A9581
:10033000A9F780959095BC01CD010895F894FFCF61
:00000001FF
