:100000000C942A000C9447000C9447000C94470071
:100010000C9447000C9447000C9447000C94470044
:100020000C9447000C9447000C9447000C94EB0090
:100030000C9447000C9447000C9447000C94470024
:100040000C9447000C9447000C9447000C94470014
:100050000C94470011241FBECFE5D4E0DEBFCDBF16
:1000600010E0A0E6B0E0E0E9F5E002C005900D92F6
:10007000A236B107D9F710E0A2E6B0E001C01D92A8
:10008000A938B107E1F70E9420020C94C6020C9433
:100090000000282F207F25BBA898A898AA9A20E4C2
:1000A0003FE1F9013197F1F7AA9890E044E0880F19
:1000B000991F4A95E1F785BBAA9AC9010197F1F703
:1000C000AA98089582E090E00E94490088E290E0BA
:1000D0000E9449008CE090E00E94490086E090E098
:1000E0000E9449000895282F207F25BBA89AAA9A2C
:1000F00020E43FE1F9013197F1F7AA9890E054E04C
:10010000880F991F5A95E1F785BBA89AAA9AC90149
:100110000197F1F7AA980895EF92FF921F93CF935A
:10012000DF93EC0110E060EAE62E6FE0F62E06C0E9
:100130000E9473001F5FC7010197F1F7FE01E10FF5
:10014000F11D80818823A1F7DF91CF911F91FF904E
:10015000EF900895CF93DF93EC0184E00E94490073
:10016000209791F480E30E9473000EC0CE016AE0F4
:1001700070E00E94B202805D0E947300CE016AE0CE
:1001800070E00E94B202EB01209781F786E00E94A6
:100190004900DF91CF91089587E689B910BC88E9BD
:1001A0008AB986E880BD08955D9BFECF8CB908951D
:1001B0005F9BFECF8CB10895FC0120E43CE907C0B1
:1001C0005D9BFECF8CB9C9010197F1F73196808113
:1001D0008823B1F708951F920F920FB60F92112442
:1001E0001F932F933F934F935F936F937F938F93BF
:1001F0009F93AF93BF93EF93FF93E0916300F091D0
:1002000064008CB1DF01A959BF4F8C933196F093F4
:100210006400E0936300E959FF4F80818A3251F412
:1002200010EC812F0E94490080E20E9473001F5F42
:100230001F3CB9F780EC0E94490087E690E00E94DD
:100240008C001092660010926500FF91EF91BF91B3
:10025000AF919F918F917F916F915F914F913F915E
:100260002F911F910F900FBE0F901F901895982FF0
:1002700089B38923E9F320E030E040E050E060EA10
:100280007FE0FB013197F1F789B3892351F489B3FA
:100290008923E9F32F5F3F4F2430310511F420E02B
:1002A00030E04F5F5F4F82E04E3E580751F780913C
:1002B00060008F5F80936000C901089580916000A5
:1002C0000E9449008FEE8BBB80E49CE90197F1F717
:1002D000C8990BC081E00E9437018330910511F469
:1002E00081E301C08F5B80936200C9990BC082E0FB
:1002F0000E9437018330910511F482E301C08C5BC9
:1003000080936200CA990BC084E00E943701833059
:10031000910511F483E301C0895B80936200CB995E
:1003200016C0CB9BFECF84E00E9449008091600004
:100330008150809360000E94490080E280936200B7
:10034000809160000E94490086E00E9449008FED84
:100350008BBB80E49CE90197F1F7C8990BC081E061
:100360000E9437018330910511F484E301C0865B5C
:1003700080936200C9990BC082E00E9437018330EC
:10038000910511F485E301C0835B80936200CA99F3
:100390000BC084E00E9437018330910511F486E39D
:1003A00001C0805B809362008FEB8BBB80E49CE993
:1003B0000197F1F7C8990BC081E00E9437018330A3
:1003C000910511F487E301C08D5A80936200C999A9
:1003D0000BC082E00E9437018330910511F488E35D
:1003E00001C08A5A80936200CA990BC084E00E94BF
:1003F00037018230910511F489E301C0875A809357
:1004000062008FE78BBB80E49CE90197F1F7C89904
:1004100006C081E00E9437018AE280936200C99998
:1004200006C082E00E94370180E380936200CA998F
:1004300006C084E00E94370183E280936200089541
:10044000EF92FF920F931F93CF93DF938FEF84BBB5
:1004500080EF8ABB0E946200789480E80E94490085
:1004600087E689B910BC88E98AB986E880BD70E85A
:10047000E72EC0E4DCE90E945E01909162009332B5
:1004800099F400E8802F0E94490080E20E947300E6
:100490000F5F0F38B9F780E80E944900E0926000D2
:1004A00080E280936200E7CF892F81548A3118F06F
:1004B0008F5E893090F40F2D10E009581F4FF8011E
:1004C0009083809160000E944900F80180810E9421
:1004D0007300F39480E280936200809162008A321C
:1004E00051F6809160000E9449000F2D10E00958DC
:1004F0001F4FF80180810E94730080916200F80113
:100500008083E7E7F0E007C05D9BFECF8CB9CE01AA
:100510000197F1F7319680818823B1F78FE80E9427
:10052000490083E50E9473001092660010926500F6
:1005300040918700509188000AC0F901E958FF4FA7
:1005400010822F5F3F4F309366002093650020910B
:10055000650030916600FA01E20FF31F8081882365
:1005600061F789CFAA1BBB1B51E107C0AA1FBB1FA4
:10057000A617B70710F0A61BB70B881F991F5A952F
:10058000A9F780959095BC01CD010895F894FFCF0F
:020590008000E9
:00000001FF
