:100000000C942A000C9447000C9447000C94470071
:100010000C9447000C9447000C9447000C94470044
:100020000C9447000C9447000C9447000C94470034
:100030000C9447000C9447000C9447000C94470024
:100040000C9447000C9447000C9447000C94470014
:100050000C94470011241FBECFE5D4E0DEBFCDBF16
:1000600010E0A0E6B0E0EAE8F4E002C005900D92EE
:10007000AC36B107D9F710E0ACE6B0E001C01D9294
:10008000A037B107E1F70E941B010C9443020C94C6
:100090000000282F207F25BBA898A898AA9A20E4C2
:1000A0003FE1F9013197F1F7AA9890E044E0880F19
:1000B000991F4A95E1F785BBAA9AC9010197F1F703
:1000C000AA98089582E090E00E94490088E290E0BA
:1000D0000E9449008CE090E00E94490086E090E098
:1000E0000E9449000895282F207F25BBA89AAA9A2C
:1000F00020E43FE1F9013197F1F7AA9890E054E04C
:10010000880F991F5A95E1F785BBA89AAA9AC90149
:100110000197F1F7AA980895EF92FF921F93CF935A
:10012000DF93EC0110E060EAE62E6FE0F62E06C0E9
:100130000E9473001F5FC7010197F1F7FE01E10FF5
:10014000F11D80818823A1F7DF91CF911F91FF904E
:10015000EF900895CF93DF93EC0184E00E94490073
:10016000209791F480E30E9473000EC0CE016AE0F4
:1001700070E00E94F801805D0E947300CE016AE089
:1001800070E00E94F801EB01209781F786E00E9461
:100190004900DF91CF9108950F931F938C0184E064
:1001A0000E944900C8016AE070E00E94F801805D89
:1001B0000E947300C8016AE070E00E94F801862F77
:1001C000805D0E94730086E00E9449001F910F919C
:1001D0000895EF92FF921F93CF93DF93EC0110E00D
:1001E00070EAE72E7FE0F72E06C00E9473001F5FC3
:1001F000C7010197F1F7FE01E10FF11D808188230E
:10020000A1F7DF91CF911F91FF90EF9008959C018E
:10021000E199FECF3FBB2EBBE09A8DB308959C01C0
:10022000E199FECF3FBB2EBB6DBB0FB6F894E29AAF
:10023000E19A0FBE08950F931F93DF93CF93CDB72D
:10024000DEB72B970FB6F894DEBF0FBECDBF8FEF92
:1002500084BB1ABA0E94620080E80E9449002FE025
:1002600031E04BE050E060E670E080E090E00E941A
:10027000C70127E031E04BE050E060E070E08E0124
:100280000F5F1F4FC8010E9495011C86C8010E9484
:100290008C0067E071E080E091E00E94B1019093F2
:1002A0006D0080936C008FE80E94490080916C0083
:1002B00090916D000E94AA00C89BFECFC899FECF06
:1002C00060916C0070916D006F5F7F4F70936D0057
:1002D00060936C004FE051E080E091E00E94E30108
:1002E000E2CFEF92FF921F93CF93DF93EC01DC01FB
:1002F0000D900020E9F71A2F181B1250E0EAEE2E9D
:10030000EFE0FE2E0AC0FE01E10FF11D80810E9488
:1003100073001150C7010197F1F71123A1F7DF9185
:10032000CF911F91FF90EF900895A0E0B0E0EBE92E
:10033000F1E00C9416027C01EB018A01690109C00D
:10034000CE012196F6010995F70181937F010150B5
:10035000104001151105A1F7CDB7DEB7E8E00C9408
:100360003202DF92EF92FF920F931F937B018C0179
:10037000FB010995D82EC8010196F7010995982F20
:100380008D2D1F910F91FF90EF90DF900895A0E0C9
:10039000B0E0EDECF1E00C941602EC017B018A0177
:1003A000690109C0F70161917F01CE012196F60133
:1003B00009950150104001151105A1F7CDB7DEB721
:1003C000E8E00C943202DF92EF92FF920F931F93BA
:1003D000D72E7A018C01FA0109956D2DC80101967D
:1003E000F70109951F910F91FF90EF90DF9008950D
:1003F000AA1BBB1B51E107C0AA1FBB1FA617B7074B
:1004000010F0A61BB70B881F991F5A95A9F7809566
:100410009095BC01CD0108952F923F924F925F922B
:100420006F927F928F929F92AF92BF92CF92DF9204
:10043000EF92FF920F931F93CF93DF93CDB7DEB769
:10044000CA1BDB0B0FB6F894DEBF0FBECDBF0994FD
:100450002A88398848885F846E847D848C849B8454
:10046000AA84B984C884DF80EE80FD800C811B8162
:10047000AA81B981CE0FD11D0FB6F894DEBF0FBE91
:0A048000CDBFED010895F894FFCF01
:0C048A0053656E736F7220496E203A00BB
:00000001FF
