:100000000C942A000C945F000C9447000C94470059
:100010000C9447000C9447000C9447000C94470044
:100020000C9447000C9447000C9447000C94470034
:100030000C9447000C9447000C9447000C94470024
:100040000C9447000C9447000C9447000C94470014
:100050000C94470011241FBECFE5D4E0DEBFCDBF16
:1000600010E0A0E6B0E0E6E0F1E002C005900D92FD
:10007000A036B107D9F710E0A0E6B0E001C01D92AC
:10008000A036B107E1F70E9449000C9481000C945E
:1000900000001ABA8FEF87BB11BA82BB789480E454
:1000A0008BBF82E085BF40EF20E931E048BB88EE9E
:1000B00093E0F9013197F1F70197D9F7F7CF1F9244
:1000C0000F920FB60F9211242F933F938F939F930C
:1000D000EF93FF9388B3809588BB88E893E120E98C
:1000E00031E0F9013197F1F70197D9F7FF91EF91DD
:1000F0009F918F913F912F910F900FBE0F901F9066
:060100001895F894FFCFF2
:00000001FF
