:100000000C942A000C9447000C9447000C94470071
:100010000C9447000C9447000C9447000C94470044
:100020000C9447000C945B000C9447000C94470020
:100030000C9447000C9447000C9447000C94470024
:100040000C9447000C9447000C9447000C94470014
:100050000C94470011241FBECFE5D4E0DEBFCDBF16
:1000600010E0A0E6B0E0E6E1F1E002C005900D92FC
:10007000A036B107D9F710E0A0E6B0E001C01D92AC
:10008000A236B107E1F70E9449000C9489000C9454
:1000900000001ABA8FEF87BB11BA82BB82E083BF20
:1000A00012BE81E089BF789480E48BBF82E085BF77
:1000B00080EF88BBFECF1F920F920FB60F921124D4
:1000C0002F933F938F939F93EF93FF9380916000C3
:1000D00090916100019690936100809360008D582B
:1000E000914061F488B3809588BB84EF91E020E96A
:1000F00031E0F9013197F1F70197D9F7FF91EF91CD
:100100009F918F913F912F910F900FBE0F901F9055
:060110001895F894FFCFE2
:00000001FF
