:100000000C942A000C9447000C9447000C94470071
:100010000C9447000C9447000C9447000C94470044
:100020000C9447000C9447000C9447000C94470034
:100030000C9447000C9447000C9447000C94470024
:100040000C9447000C9447000C9447000C94470014
:100050000C94470011241FBECFE5D4E0DEBFCDBF16
:1000600010E0A0E6B0E0E6E1F1E002C005900D92FC
:10007000A036B107D9F710E0A0E6B0E001C01D92AC
:10008000A036B107E1F70E9449000C9489000C9456
:1000900000008FEF87BB1ABA18BA80E49CE9019779
:1000A000F1F7E5E076E069E05AE044E031E028E08D
:1000B00092E089B38F70823009F4E8BB89B38F7006
:1000C000843009F478BB89B38F70863009F468BB3B
:1000D00089B38F70883009F458BB89B38F7085302D
:1000E00009F418BA89B38F70813009F448BB89B319
:1000F0008F70833009F438BB89B38F70873009F46F
:1001000028BB89B38F70893011F498BBD2CF18BA4D
:06011000D0CFF894FFCFF0
:00000001FF
