:100000000C942A000C9447000C9447000C94470071
:100010000C9447000C9447000C9447000C94470044
:100020000C9447000C9447000C9447000C94470034
:100030000C9447000C9447000C9447000C94470024
:100040000C9447000C9447000C9447000C94470014
:100050000C94470011241FBECFE5D4E0DEBFCDBF16
:1000600010E0A0E6B0E0EAE6FDE002C005900D92E7
:10007000AA3EB107D9F711E0AAEEB0E001C01D9287
:10008000AC32B107E1F70E9482030C94B3060C94E2
:100090000000282F207F25BBA898A898AA9A20E4C2
:1000A0003FE1F9013197F1F7AA9890E044E0880F19
:1000B000991F4A95E1F785BBAA9AC9010197F1F703
:1000C000AA98089582E090E00E94490088E290E0BA
:1000D0000E9449008CE090E00E94490086E090E098
:1000E0000E9449000895282F207F25BBA89AAA9A2C
:1000F00020E43FE1F9013197F1F7AA9890E054E04C
:10010000880F991F5A95E1F785BBA89AAA9AC90149
:100110000197F1F7AA980895EF92FF921F93CF935A
:10012000DF93EC0110E060EAE62E6FE0F62E06C0E9
:100130000E9473001F5FC7010197F1F7FE01E10FF5
:10014000F11D80818823A1F7DF91CF911F91FF904E
:10015000EF900895CF93DF93EC0184E00E94490073
:10016000209791F480E30E9473000EC0CE016AE0F4
:1001700070E00E946806805D0E947300CE016AE014
:1001800070E00E946806EB01209781F786E00E94EC
:100190004900DF91CF9108950F931F938C0184E064
:1001A0000E944900C8016AE070E00E946806805D14
:1001B0000E947300C8016AE070E00E946806862F02
:1001C000805D0E94730086E00E9449001F910F919C
:1001D0000895EF92FF921F93CF93DF93EC0110E00D
:1001E00070EAE72E7FE0F72E06C00E9473001F5FC3
:1001F000C7010197F1F7FE01E10FF11D808188230E
:10020000A1F7DF91CF911F91FF90EF9008959C018E
:10021000E199FECF3FBB2EBB6DBB0FB6F894E29ABF
:10022000E19A0FBE0895982F80B38923E9F320E067
:1002300030E040E050E060EA7FE0FB013197F1F709
:1002400080B3892351F480B38923E9F32F5F3F4FB3
:100250002430310511F420E030E04F5F5F4F82E041
:100260004E3E580751F78091E7008F5F8093E7007B
:10027000C9010895EF92FF920F931F93CF93DF93DD
:1002800080E197E220E931E0F9013197F1F7019738
:10029000D9F781E00E94490080E80E94490010924D
:1002A000EB001092EA00FFEEEF2EC0E4DCE91FED58
:1002B0000FEBEFE7FE2E1092ED001092EC00809114
:1002C000E7000E944900E2BACE010197F1F7809958
:1002D00029C081E00E9413019093ED008093EC000F
:1002E0008330910561F481E30E9473008091EA00FC
:1002F0009091EB00FC01EE5FFE4F21E30DC08F5BA0
:100300000E9473008091EA009091EB00FC01EE5F87
:10031000FE4F2091EC002F5B208301969093EB0021
:100320008093EA00819929C082E00E941301909392
:10033000ED008093EC008330910561F482E30E942C
:1003400073008091EA009091EB00FC01EE5FFE4F9C
:1003500022E30DC08C5B0E9473008091EA009091B3
:10036000EB00FC01EE5FFE4F2091EC002C5B208344
:1003700001969093EB008093EA00829929C084E073
:100380000E9413019093ED008093EC00833091055F
:1003900061F483E30E9473008091EA009091EB0086
:1003A000FC01EE5FFE4F23E30DC0895B0E947300EA
:1003B0008091EA009091EB00FC01EE5FFE4F2091EE
:1003C000EC00295B208301969093EB008093EA0078
:1003D000839922C0839BFECF84E00E9449008091D4
:1003E000E70081508093E700E091EA00F091EB0094
:1003F0003197F093EB00E093EA00EE5FFE4F10823E
:100400000E94490080E20E9473008091E7000E94F0
:10041000490086E00E94490012BBCE010197F1F726
:10042000809929C081E00E9413019093ED00809390
:10043000EC008330910561F484E30E9473008091A5
:10044000EA009091EB00FC01EE5FFE4F24E30DC04B
:10045000865B0E9473008091EA009091EB00FC01A2
:10046000EE5FFE4F2091EC00265B20830196909377
:10047000EB008093EA00819929C082E00E94130179
:100480009093ED008093EC008330910561F485E357
:100490000E9473008091EA009091EB00FC01EE5FF6
:1004A000FE4F25E30DC0835B0E9473008091EA003C
:1004B0009091EB00FC01EE5FFE4F2091EC00235B7E
:1004C000208301969093EB008093EA00829929C0E3
:1004D00084E00E9413019093ED008093EC00833040
:1004E000910561F486E30E9473008091EA00909187
:1004F000EB00FC01EE5FFE4F26E30DC0805B0E9427
:1005000073008091EA009091EB00FC01EE5FFE4FDA
:100510002091EC00205B208301969093EB00809368
:10052000EA00839905C0839BFECF81E090E0B8C0CC
:1005300002BBCE010197F1F7809929C081E00E94AA
:1005400013019093ED008093EC008330910561F4EA
:1005500087E30E9473008091EA009091EB00FC0118
:10056000EE5FFE4F27E30DC08D5A0E94730080910D
:10057000EA009091EB00FC01EE5FFE4F2091EC0051
:100580002D5A208301969093EB008093EA00819985
:1005900029C082E00E9413019093ED008093EC004B
:1005A0008330910561F488E30E9473008091EA0032
:1005B0009091EB00FC01EE5FFE4F28E30DC08A5ADC
:1005C0000E9473008091EA009091EB00FC01EE5FC5
:1005D000FE4F2091EC002A5A208301969093EB0065
:1005E0008093EA00829929C084E00E9413019093CD
:1005F000ED008093EC008230910561F489E30E9464
:1006000073008091EA009091EB00FC01EE5FFE4FD9
:1006100029E30DC0875A0E9473008091EA009091EF
:10062000EB00FC01EE5FFE4F2091EC00275A208387
:1006300001969093EB008093EA00839905C0839B19
:10064000FECF83E090E02CC0F2BACE010197F1F723
:1006500080990AC081E00E9413019093ED0080937D
:10066000EC008AE20E94730081990AC082E00E9435
:1006700013019093ED008093EC0080E30E947300DF
:1006800082990AC084E00E9413019093ED00809348
:10069000EC0083E20E94730083990DCE84E090E029
:1006A0009093EF008093EE0081E00E944900DF917B
:1006B000CF911F910F91FF90EF900895EF92FF92CD
:1006C0001F93CF93DF93EC01DC010D900020E9F73D
:1006D0001A2F181B1250A0EAEA2EAFE0FA2E0AC019
:1006E000FE01E10FF11D80810E9473001150C701CE
:1006F0000197F1F71123A1F7DF91CF911F91FF909F
:10070000EF9008955F926F927F928F929F92AF9237
:10071000BF92CF92DF92EF92FF920F931F93CF93EE
:10072000DF9380EF81BB1FEF14BB0E94620017BBF9
:1007300018BAC0E9D1E032E7E32EF12C22E0822E94
:10074000912C92E0692E91E0792E00E710E081E093
:10075000C82ED12CB4E0AB2EB12C55245A940E9453
:100760003A018091EE009091EF00019709F0EAC004
:1007700081E00E94490080E80E94490080E197E200
:10078000FE013197F1F70197D9F780E690E00E94DA
:100790008C0080E197E2FE013197F1F70197D9F7DC
:1007A00081E00E94490080E80E9449000E943A01CD
:1007B000E199FECFFFBAEEBAE09A8DB390E0909344
:1007C0002B0180932A01019709F4BCC09092EF009D
:1007D0008092EE00F30101900020E9F73197E2509A
:1007E000F140F0932701E093260127E031E0AF01CB
:1007F00060E670E082E091E00E944C068091260164
:10080000E199FECF1FBB0EBB8DBB0FB6F894E29AE9
:10081000E19A0FBE81E00E94490080E80E944900F1
:1008200082E091E00E948C0080E197E2FE01319726
:10083000F1F70197D9F781E00E94490080E80E9412
:100840004900E199FECF1FBB0EBBE09A8DB390E04B
:100850000E94AA0080E197E2FE013197F1F701972B
:10086000D9F76091260170912701A2E0B1E0FD0166
:1008700040E320E030E011C05081E199FECF842FA9
:1008800090E09FBB8EBB5DBB0FB6F894E29AE19AF5
:100890000FBE4F5F2F5F3F4F31966217730764F7AC
:1008A000E4E1F1E040E320E030E00EC01C92E19989
:1008B000FECF842F90E09FBB8EBBE09A8DB38193D7
:1008C0004F5F2F5F3F4F1196809126019091270136
:1008D000821793075CF74093E8003093250120933B
:1008E000240180E197E2FE013197F1F70197D9F7F2
:1008F00081E00E94490080E80E94490084E191E083
:100900000E948C0080E197E2FE013197F1F7019798
:10091000D9F781E00E94490080E80E9449008FE6F3
:1009200090E00E948C00D0922B01C0922A01E199A4
:10093000FECFFFBAEEBA81E08DBB0FB6F894E29A13
:10094000E19A0FBE8091EE009091EF00029701F5C1
:1009500080E197E2FE013197F1F70197D9F781E045
:100960000E94490080E80E94490082E091E00E94D4
:100970008C0080E197E2FE013197F1F70197D9F7FA
:1009800081E00E94490080E80E9449000E943A01EB
:100990008091EE009091EF00039709F04EC1F301B2
:1009A00001900020E9F73197E250F140F0932701E0
:1009B000E0932601E199FECF1FBB0EBBE09A8DB3F9
:1009C000682F70E07093130160931201E4E1F1E08D
:1009D00020E030E040E30CC0E199FECF842F90E0AE
:1009E0009FBB8EBBE09A8DB381932F5F3F4F4F5FCC
:1009F000261737078CF34093E800309325012093A6
:100A0000240181E00E94490080E80E9449008CE7AF
:100A100090E00E948C0080E197E2FE013197F1F7AF
:100A20000197D9F781E00E94490080E80E944900BF
:100A3000209126013091270180911201909113019C
:100A40002817390709F0F1C081E00E94490080E8C9
:100A50000E9449008EE890E00E948C0080E197E2BD
:100A6000FE013197F1F70197D9F781E00E94490023
:100A700080E80E94490010922501109224013FC095
:100A800080E197E2FE013197F1F70197D9F781E014
:100A90000E94490081E80E944900E0912401F09100
:100AA0002501EE5FFE4F80810E94730089E80E945D
:100AB0004900E0912401F0912501EC5EFE4F808118
:100AC0000E9473002091240130912501F901EE5F0D
:100AD000FE4FD901AC5EBE4F90818C91981749F4BE
:100AE0008091F0009091F10001969093F100809335
:100AF000F0002F5F3F4F3093250120932401209178
:100B000026013091270180912401909125018217BF
:100B100093070CF4B5CF8091F0009091F10082170B
:100B2000930709F075C080E197E2FE013197F1F774
:100B30000197D9F781E00E94490080E80E944900AE
:100B40008DE990E00E948C0058BA80E197E2FE01A6
:100B50003197F1F70197D9F781E00E94490080E8C9
:100B60000E9449008EEA90E00E948C0080E197E2AA
:100B7000FE013197F1F70197D9F781E00E94490012
:100B800080E80E94490080EC90E00E948C0080E1A7
:100B900097E2FE013197F1F70197D9F718BA8FE77D
:100BA00082BB80B38F708F30E1F3809921C0809B2E
:100BB000FECF8AEA88BB80E197E2FE013197F1F728
:100BC0000197D9F785E588BB90922B0180922A0185
:100BD000E199FECFFFBAEEBA82E08DBB0FB6F89472
:100BE000E29AE19A0FBED092EF00C092EE0025C0CB
:100BF0008299DBCF829BFECF58BA81E00E944900E8
:100C000080E80E94490089EC90E00E948C0015C0A9
:100C100080E197E2FE013197F1F70197D9F781E082
:100C20000E94490080E80E94490088ED90E00E94FF
:100C30008C00B092EF00A092EE008091EE009091B7
:100C4000EF00049709F08BCD80E197E2FE01319728
:100C5000F1F70197D9F781E00E94490080E80E94EE
:100C6000490080E197E2FE013197F1F70197D9F74A
:100C700080E690E00E948C0080E197E2FE013197CF
:100C8000F1F70197D9F781E00E94490080E80E94BE
:100C900049000E943A0163CDA0E0B0E0E2E5F6E051
:100CA0000C948606EC017B018A01690109C0F701F9
:100CB00061917F01CE012196F60109950150104006
:100CC00001151105A1F7CDB7DEB7E8E00C94A20637
:100CD000AA1BBB1B51E107C0AA1FBB1FA617B70762
:100CE00010F0A61BB70B881F991F5A95A9F780957E
:100CF0009095BC01CD0108952F923F924F925F9243
:100D00006F927F928F929F92AF92BF92CF92DF921B
:100D1000EF92FF920F931F93CF93DF93CDB7DEB780
:100D2000CA1BDB0B0FB6F894DEBF0FBECDBF099414
:100D30002A88398848885F846E847D848C849B846B
:100D4000AA84B984C884DF80EE80FD800C811B8179
:100D5000AA81B981CE0FD11D0FB6F894DEBF0FBEA8
:0A0D6000CDBFED010895F894FFCF18
:100D6A00456E7465722050617373776F7264007098
:100D7A00617373776F726420736574004368656387
:100D8A006B696E672070617373776F7264004C656C
:100D9A006E677468204D617463686564005061739E
:100DAA0073776F7264204D617463686564002A3AD0
:100DBA004368616E67652050617373776F72640070
:100DCA00233A556E6C6F636B0041636365737320DE
:100DDA004772616E7465640057726F6E6720506166
:0A0DEA007373776F726400803000AD
:00000001FF
