:100000000C942A000C9447000C9447000C94470071
:100010000C9447000C9447000C9447000C94470044
:100020000C9447000C9447000C9447000C94470034
:100030000C9447000C9447000C9447000C94470024
:100040000C9447000C9447000C9447000C94470014
:100050000C94470011241FBECFE5D4E0DEBFCDBF16
:1000600010E0A0E6B0E0E6E0F1E002C005900D92FD
:10007000A036B107D9F710E0A0E6B0E001C01D92AC
:10008000A036B107E1F70E9449000C9481000C945E
:1000900000008FEF87BB80EF81BB18BA8FEE82BB69
:1000A00080E49CE90197F1F7809908C0809BFECF1E
:1000B00001C0C09A80B38F708F30D9F381990AC084
:1000C000819BFECF03C088B3827088BB80B38F70E2
:1000D0008F30C9F3829908C0829BFECF01C0C19ABC
:1000E00080B38F708F30D9F38399DECF839BFECF9F
:1000F00003C088B3817088BB80B38F708F30A1F646
:06010000F8CFF894FFCFD8
:00000001FF
