:100000000C942A000C9447000C9447000C94470071
:100010000C9447000C9447000C9447000C94470044
:100020000C9447000C9453010C9447000C94470027
:100030000C9447000C9447000C9447000C94470024
:100040000C9447000C9447000C9447000C94470014
:100050000C94470011241FBECFE5D4E0DEBFCDBF16
:1000600010E0A0E6B0E0ECECF3E002C005900D92E9
:10007000A036B107D9F710E0A0E6B0E001C01D92AC
:10008000AA36B107E1F70E9407010C94E4010C9431
:100090000000282F207F25BBA898A898AA9A20E4C2
:1000A0003FE1F9013197F1F7AA9890E044E0880F19
:1000B000991F4A95E1F785BBAA9AC9010197F1F703
:1000C000AA98089582E090E00E94490088E290E0BA
:1000D0000E9449008CE090E00E94490086E090E098
:1000E0000E9449000895282F207F25BBA89AAA9A2C
:1000F00020E43FE1F9013197F1F7AA9890E054E04C
:10010000880F991F5A95E1F785BBA89AAA9AC90149
:100110000197F1F7AA980895EF92FF921F93CF935A
:10012000DF93EC0110E060EAE62E6FE0F62E06C0E9
:100130000E9473001F5FC7010197F1F7FE01E10FF5
:10014000F11D80818823A1F7DF91CF911F91FF904E
:10015000EF900895CF93DF93EC0184E00E94490073
:10016000209791F480E30E9473000EC0CE016AE0F4
:1001700070E00E94D001805D0E947300CE016AE0B1
:1001800070E00E94D001EB01209781F786E00E9489
:100190004900DF91CF9108950F931F938C0184E064
:1001A0000E944900C8016AE070E00E94D001805DB1
:1001B0000E947300C8016AE070E00E94D001862F9F
:1001C000805D0E94730086E00E9449001F910F919C
:1001D0000895EF92FF921F93CF93DF93EC0110E00D
:1001E00070EAE72E7FE0F72E06C00E9473001F5FC3
:1001F000C7010197F1F7FE01E10FF11D808188230E
:10020000A1F7DF91CF911F91FF90EF9008951F9379
:100210001ABA8FEF87BB11BA82BB82E083BF12BECE
:1002200081E089BF78948FEF84BB0E94620085E8EB
:100230000E9449008AE30E9473008AE80E944900F4
:100240008AE30E9473008EE80E94490083E50E94C1
:10025000730089E80E9449008DE40E94730084E8DD
:100260000E94490088E40E94730010EF18BB8CE8DC
:100270000E94490080916200909163000E94CC002E
:1002800087E80E94490080916400909165000E9477
:10029000AA0082E80E944900809166009091670060
:1002A0000E94AA00E3CF1F920F920FB60F92112463
:1002B0002F933F938F939F93EF93FF9380916000D1
:1002C00090916100019690936100809360008C543E
:1002D0009D41B9F588B3809588BB8EE591E020E912
:1002E00031E0F9013197F1F70197D9F710926100E8
:1002F000109260008091620090916300019690934B
:10030000630080936200CC97E1F410926300109236
:100310006200809164009091650001969093650061
:1003200080936400CC9769F4109265001092640089
:10033000809166009091670001969093670080938A
:100340006600FF91EF919F918F913F912F910F90B8
:100350000FBE0F901F901895EF92FF921F93CF93AF
:10036000DF93EC01DC010D900020E9F71A2F181B38
:100370001250E0EAEE2EEFE0FE2E0AC0FE01E10F81
:10038000F11D80810E9473001150C7010197F1F7A0
:100390001123A1F7DF91CF911F91FF90EF90089566
:1003A000AA1BBB1B51E107C0AA1FBB1FA617B7079B
:1003B00010F0A61BB70B881F991F5A95A9F78095B7
:0C03C0009095BC01CD010895F894FFCF8A
:00000001FF
