:100000000C942A000C9447000C9447000C94470071
:100010000C9447000C9447000C9447000C94470044
:100020000C9447000C9447000C9447000C94470034
:100030000C9447000C9447000C9447000C94470024
:100040000C9447000C9447000C9447000C94470014
:100050000C94470011241FBECFE5D4E0DEBFCDBF16
:1000600010E0A0E6B0E0EAE5F3E002C005900D92F2
:10007000A036B107D9F710E0A0E6B0E001C01D92AC
:10008000A236B107E1F70E94DB000C94AB010C949F
:100090000000282F207F25BBA898A898AA9A20E4C2
:1000A0003FE1F9013197F1F7AA9890E044E0880F19
:1000B000991F4A95E1F785BBAA9AC9010197F1F703
:1000C000AA98089582E090E00E94490088E290E0BA
:1000D0000E9449008CE090E00E94490086E090E098
:1000E0000E9449000895282F207F25BBA89AAA9A2C
:1000F00020E43FE1F9013197F1F7AA9890E054E04C
:10010000880F991F5A95E1F785BBA89AAA9AC90149
:100110000197F1F7AA980895EF92FF921F93CF935A
:10012000DF93EC0110E060EAE62E6FE0F62E06C0E9
:100130000E9473001F5FC7010197F1F7FE01E10FF5
:10014000F11D80818823A1F7DF91CF911F91FF904E
:10015000EF900895CF93DF93EC0184E00E94490073
:10016000209791F480E30E9473000EC0CE016AE0F4
:1001700070E00E949701805D0E947300CE016AE0EA
:1001800070E00E949701EB01209781F786E00E94C2
:100190004900DF91CF91089580E487B987E886B957
:1001A0000895806487B9369A349BFECF349A24B17F
:1001B00035B1C90108958F929F92AF92BF92CF92AD
:1001C000DF92EF92FF920F931F93CF93DF931ABAB0
:1001D0008FEF87BB84BB0E94620080E487B987E809
:1001E00086B980E80E94490088E50E94730089E88A
:1001F0000E94490089E50E94730080EC0E9449003A
:100200008AE50E94730010E4812EB1E49B2EA5E0E4
:10021000AA2EF0E9EF2EF1E0FF2EEAE0BE2ECC246C
:10022000C39474E0D72E87B8369A349BFECF349AA5
:1002300004B115B197B8369A349BFECF349AC4B145
:10024000D5B188E80E944900C8010E94AA008FE841
:100250000E944900CE010E94AA00C8018B5F904015
:100260008B38910570F4CE018D529140873C9105F9
:1002700040F4A8BA84EF91E0F7013197F1F70197C4
:10028000D9F7C801835C91408034910570F4CE01A8
:100290008D529140873C910540F4B8BA84EF91E0CB
:1002A000F7013197F1F70197D9F7C8018D529140C5
:1002B0008B529140E0F4CE018D52914084359105EE
:1002C00040F4D8BA84EF91E0F7013197F1F7019744
:1002D000D9F7CE01835C91408336910540F4C8BACA
:1002E00084EF91E0F7013197F1F70197D9F7C80151
:1002F000895092408F34910530F4CE018D52914057
:10030000873C910558F0075811400D31110508F050
:100310008ACFC758D140EB9708F085CF18BA84EF41
:1003200091E0F7013197F1F70197D9F77CCFAA1B3C
:10033000BB1B51E107C0AA1FBB1FA617B70710F0D0
:10034000A61BB70B881F991F5A95A9F78095909502
:0A035000BC01CD010895F894FFCF21
:00000001FF
