:100000000C942A000C9447000C9447000C94470071
:100010000C9447000C9447000C9447000C94470044
:100020000C9447000C9447000C9447000C94470034
:100030000C9447000C9447000C9447000C94470024
:100040000C9447000C9447000C9447000C94470014
:100050000C94470011241FBECFE5D4E0DEBFCDBF16
:1000600010E0A0E6B0E0EAECF3E002C005900D92EB
:10007000A036B107D9F710E0A0E6B0E001C01D92AC
:10008000A236B107E1F70E9416010C94E3010C942B
:100090000000282F207F25BBA898A898AA9A20E4C2
:1000A0003FE1F9013197F1F7AA9890E044E0880F19
:1000B000991F4A95E1F785BBAA9AC9010197F1F703
:1000C000AA98089582E090E00E94490088E290E0BA
:1000D0000E9449008CE090E00E94490086E090E098
:1000E0000E9449000895282F207F25BBA89AAA9A2C
:1000F00020E43FE1F9013197F1F7AA9890E054E04C
:10010000880F991F5A95E1F785BBA89AAA9AC90149
:100110000197F1F7AA980895EF92FF921F93CF935A
:10012000DF93EC0110E060EAE62E6FE0F62E06C0E9
:100130000E9473001F5FC7010197F1F7FE01E10FF5
:10014000F11D80818823A1F7DF91CF911F91FF904E
:10015000EF900895CF93DF93EC0184E00E94490073
:10016000209791F480E30E9473000EC0CE016AE0F4
:1001700070E00E94CF01805D0E947300CE016AE0B2
:1001800070E00E94CF01EB01209781F786E00E948A
:100190004900DF91CF9108950F931F938C0184E064
:1001A0000E944900C8016AE070E00E94CF01805DB2
:1001B0000E947300C8016AE070E00E94CF01862FA0
:1001C000805D0E94730086E00E9449001F910F919C
:1001D0000895EF92FF921F93CF93DF93EC0110E00D
:1001E00070EAE72E7FE0F72E06C00E9473001F5FC3
:1001F000C7010197F1F7FE01E10FF11D808188230E
:10020000A1F7DF91CF911F91FF90EF90089580E4C7
:1002100087B987E886B90895806487B9369A349B90
:10022000FECF349A24B135B1C90108955F926F921F
:100230007F928F929F92AF92BF92CF92DF92EF9276
:10024000FF920F931F93CF93DF938FEF87BB84BBF6
:100250000E94620080E487B987E886B995E0992E0C
:1002600084E0A82E00E4E02E0CE9F02E13E4512ED9
:10027000BAE0BB2EA8E06A2EF2E47F2EE0E9CE2E93
:10028000E1E0DE2E882483949ABAABBAC7010197C5
:10029000F1F757B8369A349BFECF349A04B115B1B2
:1002A000BABA6BBAC7010197F1F777B8369A349B9F
:1002B000FECF349AC4B1D5B18FE80E944900C8017D
:1002C0000E94AA008FEC0E944900CE010E94AA0061
:1002D00088EE93E0F6013197F1F70197D9F7C8015D
:1002E000835C91408336910538F4CE01875D91405F
:1002F0008336910508F418BAC80185569040873CAA
:10030000910538F4CE01815991408539910508F461
:1003100098BAC80181529340873C910538F4CE01C8
:10032000815991408539910508F4B8BA055F1140AB
:10033000073C110508F0A8CFCE0185569040873CB8
:10034000910508F488BACD5BD240C73CD10508F0CE
:100350009BCFA8BA99CFEF92FF921F93CF93DF93D1
:10036000EC01DC010D900020E9F71A2F181B125048
:1003700020EAE22E2FE0F22E0AC0FE01E10FF11D6D
:1003800080810E9473001150C7010197F1F711237A
:10039000A1F7DF91CF911F91FF90EF900895AA1BD5
:1003A000BB1B51E107C0AA1FBB1FA617B70710F060
:1003B000A61BB70B881F991F5A95A9F78095909592
:0A03C000BC01CD010895F894FFCFB1
:00000001FF
