:100000000C942A000C9447000C9447000C94470071
:100010000C9447000C9447000C9447000C94470044
:100020000C9447000C9447000C9447000C94470034
:100030000C9447000C9447000C9447000C94470024
:100040000C9447000C9447000C9447000C94470014
:100050000C94470011241FBECFE5D4E0DEBFCDBF16
:1000600010E0A0E6B0E0E0EAF2E002C005900D92F8
:10007000A036B107D9F710E0A0E6B0E001C01D92AC
:10008000A236B107E1F70E94DB000C944E010C94FC
:100090000000282F207F25BBA898A898AA9A20E4C2
:1000A0003FE1F9013197F1F7AA9890E044E0880F19
:1000B000991F4A95E1F785BBAA9AC9010197F1F703
:1000C000AA98089582E090E00E94490088E290E0BA
:1000D0000E9449008CE090E00E94490086E090E098
:1000E0000E9449000895282F207F25BBA89AAA9A2C
:1000F00020E43FE1F9013197F1F7AA9890E054E04C
:10010000880F991F5A95E1F785BBA89AAA9AC90149
:100110000197F1F7AA980895EF92FF921F93CF935A
:10012000DF93EC0110E060EAE62E6FE0F62E06C0E9
:100130000E9473001F5FC7010197F1F7FE01E10FF5
:10014000F11D80818823A1F7DF91CF911F91FF904E
:10015000EF900895CF93DF93EC0184E00E94490073
:10016000209791F480E30E9473000EC0CE016AE0F4
:1001700070E00E943A01805D0E947300CE016AE047
:1001800070E00E943A01EB01209781F786E00E941F
:100190004900DF91CF91089580E487B987E886B957
:1001A0000895806487B9369A349BFECF349A24B17F
:1001B00035B1C90108959F92AF92BF92CF92DF925D
:1001C000EF92FF920F931F93CF93DF931ABA8FEFA3
:1001D00084BB0E94620080E487B987E886B980E822
:1001E0000E94490088E50E94730089E80E94490046
:1001F00089E50E94730080EC0E9449008AE50E9414
:100200007300A0E49A2EF1E4AF2EE2E4BE2E70E972
:10021000C72E71E0D72E97B8369A349BFECF349A0A
:10022000E4B0F5B0A7B8369A349BFECF349AC4B187
:10023000D5B1B7B8369A349BFECF349A04B115B114
:1002400087E80E944900C7010E94AA008EE80E9428
:100250004900CE010E94AA008BEC0E944900C8010F
:100260000E94AA0080E197E2F6013197F1F7019729
:10027000D9F7D1CFAA1BBB1B51E107C0AA1FBB1FD7
:10028000A617B70710F0A61BB70B881F991F5A9522
:10029000A9F780959095BC01CD010895F894FFCF02
:00000001FF
