:100000000C942A000C9447000C9447000C94470071
:100010000C9447000C9447000C9447000C94470044
:100020000C9447000C9447000C9447000C94470034
:100030000C9447000C9447000C9447000C94470024
:100040000C9447000C9447000C9447000C94470014
:100050000C94470011241FBECFE5D4E0DEBFCDBF16
:1000600010E0A0E6B0E0E8E2F2E002C005900D92F8
:10007000A036B107D9F710E0A0E6B0E001C01D92AC
:10008000A236B107E1F70E94DB000C9412010C9438
:100090000000282F207F25BBA898A898AA9A20E4C2
:1000A0003FE1F9013197F1F7AA9890E044E0880F19
:1000B000991F4A95E1F785BBAA9AC9010197F1F703
:1000C000AA98089582E090E00E94490088E290E0BA
:1000D0000E9449008CE090E00E94490086E090E098
:1000E0000E9449000895282F207F25BBA89AAA9A2C
:1000F00020E43FE1F9013197F1F7AA9890E054E04C
:10010000880F991F5A95E1F785BBA89AAA9AC90149
:100110000197F1F7AA980895EF92FF921F93CF935A
:10012000DF93EC0110E060EAE62E6FE0F62E06C0E9
:100130000E9473001F5FC7010197F1F7FE01E10FF5
:10014000F11D80818823A1F7DF91CF911F91FF904E
:10015000EF900895CF93DF93EC0184E00E94490073
:10016000209791F480E30E9473000EC0CE016AE0F4
:1001700070E00E94FE00805D0E947300CE016AE084
:1001800070E00E94FE00EB01209781F786E00E945C
:100190004900DF91CF91089580E487B987E886B957
:1001A0000895806487B9369A349BFECF349A24B17F
:1001B00035B1C9010895FF920F931F93CF93DF9339
:1001C0008FEF84BB0E9462001ABAB898FF24FA9499
:1001D000C0E9D1E00CE3F8BA12BE80E197E2FE017B
:1001E0003197F1F70197D9F712B787E80E944900D4
:1001F000109FC00111240E94AA00EDCFAA1BBB1BB7
:1002000051E107C0AA1FBB1FA617B70710F0A61B16
:10021000B70B881F991F5A95A9F780959095BC0137
:08022000CD010895F894FFCF11
:00000001FF
