:100000000C942A000C9447000C9447000C94470071
:100010000C9447000C9447000C9447000C94470044
:100020000C9447000C9447000C9447000C94470034
:100030000C9447000C9447000C9447000C94470024
:100040000C9447000C9447000C9447000C94470014
:100050000C94470011241FBECFE5D4E0DEBFCDBF16
:1000600010E0A0E6B0E0E0E0F1E002C005900D9203
:10007000A036B107D9F710E0A0E6B0E001C01D92AC
:10008000A036B107E1F70E9449000C947E000C9461
:1000900000008FEF87BB80EF81BB5FEE46E034E06E
:1000A00022E099E052BB809908C0809BFECF01C03E
:1000B00048BB80B38F708F30D9F3819908C0819B82
:1000C000FECF01C038BB80B38F708F30D9F38299D7
:1000D00008C0829BFECF01C028BB80B38F708F30D9
:1000E000D9F3839909C0839BFECF01C098BB80B32D
:1000F0008F708F30D9F3D6CF18BAD4CFF894FFCF02
:00000001FF
