:100000000C942A000C9447000C9447000C94470071
:100010000C9447000C9447000C9447000C94470044
:100020000C9447000C9447000C9447000C94470034
:100030000C9447000C9447000C9447000C94470024
:100040000C9447000C9447000C9447000C94470014
:100050000C94470011241FBECFE5D4E0DEBFCDBF16
:1000600010E0A0E6B0E0EAE2F4E002C005900D92F4
:10007000A036B107D9F710E0A0E6B0E001C01D92AC
:10008000A236B107E1F70E9407010C9413020C9409
:100090000000282F207F25BBA898A898AA9A20E4C2
:1000A0003FE1F9013197F1F7AA9890E044E0880F19
:1000B000991F4A95E1F785BBAA9AC9010197F1F703
:1000C000AA98089582E090E00E94490088E290E0BA
:1000D0000E9449008CE090E00E94490086E090E098
:1000E0000E9449000895282F207F25BBA89AAA9A2C
:1000F00020E43FE1F9013197F1F7AA9890E054E04C
:10010000880F991F5A95E1F785BBA89AAA9AC90149
:100110000197F1F7AA980895EF92FF921F93CF935A
:10012000DF93EC0110E060EAE62E6FE0F62E06C0E9
:100130000E9473001F5FC7010197F1F7FE01E10FF5
:10014000F11D80818823A1F7DF91CF911F91FF904E
:10015000EF900895CF93DF93EC0184E00E94490073
:10016000209791F480E30E9473000EC0CE016AE0F4
:1001700070E00E94FF01805D0E947300CE016AE082
:1001800070E00E94FF01EB01209781F786E00E945A
:100190004900DF91CF9108950F931F938C0184E064
:1001A0000E944900C8016AE070E00E94FF01805D82
:1001B0000E947300C8016AE070E00E94FF01862F70
:1001C000805D0E94730086E00E9449001F910F919C
:1001D0000895EF92FF921F93CF93DF93EC0110E00D
:1001E00070EAE72E7FE0F72E06C00E9473001F5FC3
:1001F000C7010197F1F7FE01E10FF11D808188230E
:10020000A1F7DF91CF911F91FF90EF9008952F926A
:100210003F924F925F926F927F928F929F92AF9296
:10022000BF92CF92DF92EF92FF920F931F93CF93E3
:10023000DF9380EF81BB8FEF87BB84BB0E9462009E
:100240008FE00E94490080E80E944900C0E4DCE998
:1002500074E0272E6FED362E55E0452E46E0542EE5
:1002600037E0632E28E0722E9FEB892E89E0982ECE
:100270000AE0A02E1BE0B12EBCE0CB2EAFE7DA2EB9
:10028000FDE0EF2EEEE0FE2E0FE010E18FEE82BBE0
:10029000CE010197F1F7809907C0809BFECF81E0E6
:1002A00088BB81E40E947300819907C0819BFECFC7
:1002B00082E088BB82E40E947300829907C0829B1F
:1002C000FECF83E088BB83E40E947300839906C05D
:1002D000839BFECF28BA84E40E94730032BACE0119
:1002E0000197F1F7809906C0809BFECF48BA85E45C
:1002F0000E947300819906C0819BFECF58BA86E4A4
:100300000E947300829906C0829BFECF68BA87E480
:100310000E947300839906C0839BFECF78BA88E45D
:100320000E94730082BACE010197F1F7809906C04E
:10033000809BFECF98BA89E40E947300819906C021
:10034000819BFECFA8BA8AE40E947300829906C0FE
:10035000829BFECFB8BA8BE40E947300839906C0DB
:10036000839BFECFC8BA8CE40E947300D2BACE0140
:100370000197F1F7809906C0839BFECFE8BA8DE420
:100380000E947300819906C0819BFECFF8BA8EE46B
:100390000E947300829906C0829BFECF08BB8FE447
:1003A0000E947300839972CF839BFECF18BB80E5B8
:1003B0000E9473006BCFEF92FF921F93CF93DF9356
:1003C000EC01DC010D900020E9F71A2F181B1250E8
:1003D000E0EAEE2EEFE0FE2E0AC0FE01E10FF11D75
:1003E00080810E9473001150C7010197F1F711231A
:1003F000A1F7DF91CF911F91FF90EF900895AA1B75
:10040000BB1B51E107C0AA1FBB1FA617B70710F0FF
:10041000A61BB70B881F991F5A95A9F78095909531
:0A042000BC01CD010895F894FFCF50
:00000001FF
